:100000000C942A000C9447000C9447000C94662A28
:100010000C9447000C9447000C9481270C944700E3
:100020000C9447000C9447000C9447000C94470034
:100030000C9447000C9447000C9447000C94470024
:100040000C9447000C9447000C9447000C94470014
:100050000C94470011241FBECFE5D8E0DEBFCDBF12
:1000600011E0A8E6B1E001C01D92AC38B107E1F79C
:1000700011E0A0E6B0E0E6E9F1E602C005900D92DD
:10008000A836B107D9F70E94E3270C94C9300C9425
:100090000000EF92FF920F931F937B018C0120E0F1
:1000A00030E040E05FE40E94821188238CF0C801B8
:1000B000B70120E030E040E05FE40E944E0F0E9474
:1000C000E2119B01AC01205030404040504806C036
:1000D000C801B7010E94E2119B01AC01B901CA013C
:1000E0001F910F91FF90EF900895A0E0B0E0EBE733
:1000F000F0E00C9492307B018C0120E030E040E88D
:100100005FE30E94B21188234CF4AA24BB24CC24C0
:10011000DD24EE24FF2400E010E086C0C801B70112
:1001200020E030E040E85FE40E94B211882354F4FC
:10013000C801B7010E9449005B016C01EE24FF2455
:10014000870172C0C801B70120E030E040E85FE5F8
:100150000E94B21187FD0FC0AA24AA94BB24BA94AE
:10016000CC24CA94DD24DA94EE24EA94FF24FA9491
:100170000FEF1FEF59C0C801B70120E030E040E8A1
:100180005FE20E94AC0F7B018C0122243324210109
:1001900090E1A92EB12CC12CD12CC0E0D0E061E0BF
:1001A00070E080E090E00A2C04C0660F771F881F83
:1001B000991F0A94D2F70E9436123B014C01C801E4
:1001C000B701A40193010E948211882364F02A28B8
:1001D0003B284C285D28C801B701A40193010E9467
:1001E000A6107B018C01D694C794B794A79421964E
:1001F000C530D105A1F6C801B70120E030E040E8E4
:100200005FE40E94AC0F0E9449005B016C019B01FE
:10021000A60160E070E080E090E0022D0E94AF1245
:1002200059016A017B018C019501A601B701C80142
:10023000CDB7DEB7E2E10C94AE30AEE5B0E0E3E27C
:10024000F1E00C949230A8E04E010894811C911CBE
:10025000F4016A2E11926A94E9F729833A834B8359
:100260005C836D837E838F839887CE010996FC0122
:100270001192AA95E9F7A986BA86CB86DC86ED8627
:10028000FE860F87188B29843A844B845C84ED8426
:10029000FE840F85188969807A808B809C806DA68A
:1002A0007EA68FA698AA6D807E808F809884E114A8
:1002B000F1040105110509F0B3C362147304840449
:1002C000950408F03DC100E0201600E0300601E092
:1002D000400600E0500688F41FEF21163104410467
:1002E000510439F030F048E0E42EF12C012D112DAD
:1002F00018C0EE24FF24870114C020E0221620E05D
:10030000320620E0420621E0520630F038E1E32ECA
:10031000F12C012D112D05C020E1E22EF12C012D33
:10032000112DD201C1010E2C04C0B695A795979549
:1003300087950A94D2F788599F4FDC012C9180E26F
:1003400090E0A0E0B0E08E199F09A00BB10B7C01FA
:100350008D01E21AF10801091109E114F104010506
:100360001105A1F10E2C04C0220C331C441C551C99
:100370000A94D2F7A40193010E2C04C0220F331F5C
:10038000441F551F0A94D2F780E290E08E199F090E
:100390006DA47EA48FA498A804C0969487947794A3
:1003A00067948A95D2F7622A732A842A952AADA483
:1003B000BEA4CFA4D8A804C0AA0CBB1CCC1CDD1CB6
:1003C000EA94D2F7ADA6BEA6CFA6D8AA6201EE24C3
:1003D000FF24CDAADEAAEFAAF8AE92018101207017
:1003E000307009AF1AAF2BAF3CAFC401B301A70106
:1003F00096010E9470307B018C01C401B3012DA9CC
:100400003EA94FA958AD0E947030C901DA013C01E4
:100410004D01C401B30129AD3AAD4BAD5CAD0E94B5
:1004200051309B01AC018701FF24EE24ADA4BEA492
:10043000CFA4D8A8C601AA27BB2757016801A82ABC
:10044000B92ACA2ADB2AA216B306C406D506E0F4E6
:1004500008946108710881089108A20CB31CC41C9F
:10046000D51CA214B304C404D50470F0A216B306BC
:10047000C406D50648F408946108710881089108FB
:10048000A20CB31CC41CD51CA21AB30AC40AD50AF8
:10049000C601B5012DA93EA94FA958AD0E947030E3
:1004A0007B018C01C601B5012DA93EA94FA958AD0C
:1004B0000E947030C901DA015C016D01C601B5010D
:1004C00029AD3AAD4BAD5CAD0E9451309B01AC0102
:1004D0008701FF24EE248DA59EA5AFA5B8A9A07025
:1004E000B070E82AF92A0A2B1B2BE216F306040740
:1004F0001507C0F40894A108B108C108D108E20C9E
:10050000F31C041D151DE214F3040405150550F039
:10051000E216F3060407150728F40894A108B108A9
:10052000C108D108D3019927882786017501E82AD7
:10053000F92A0A2B1B2BE9AAFAAA0BAB1CABCFC4D6
:10054000211431044104510471F461E070E080E051
:1005500090E020E030E040E050E00E947030C901BF
:10056000DA011C012D0100E0201600E0300601E058
:10057000400600E0500688F41FEF211631044104C4
:10058000510431F028F048E050E060E070E017C01E
:1005900040E050E060E070E012C020E0221620E071
:1005A000320620E0420621E0520628F048E150E001
:1005B00060E070E004C040E150E060E070E0D20133
:1005C000C101042E04C0B695A795979587950A9406
:1005D000D2F788599F4FDC012C91E0E2EE2EF12CEE
:1005E000012D112DD801C701841B950BA60BB70B4C
:1005F000821B9109A109B1090097A105B10561F418
:1006000064015301A218B308C408D50831E0632E71
:10061000712C812C912C1EC16F968FAF6F97082E75
:1006200004C0220C331C441C551C0A94D2F7EE2D36
:10063000E81B640153010E2E04C0D694C794B794EE
:10064000A7940A94D2F7A40193016F960FAC6F9709
:1006500004C0220F331F441F551F0A94D2F76DA404
:100660007EA48FA498A80E2E04C0969487947794A5
:1006700067940A94D2F784017301E22AF32A042BC7
:10068000152BE9A6FAA60BA71CA7320188249924EA
:10069000920181012070307021960CAF1DAF2EAFFA
:1006A0003FAF2197C601B501A40193010E947030AC
:1006B0007B018C01C601B501A40193010E94703039
:1006C000C901DA0125968CAF9DAFAEAFBFAF2597BC
:1006D000BC01CD0121962CAD3DAD4EAD5FAD219756
:1006E0000E9451309B01AC018701FF24EE24A9A494
:1006F000BAA4CBA4DCA4C601AA27BB275C016D0168
:10070000AE28BF28C02AD12AA216B306C406D50631
:1007100060F525966CAD7DAD8EAD9FAD2597615092
:1007200070408040904025966CAF7DAF8EAF9FAFFC
:100730002597A20CB31CC41CD51CA214B304C4047A
:10074000D50498F0A216B306C406D50670F461501D
:1007500070408040904025966CAF7DAF8EAF9FAFCC
:100760002597A20CB31CC41CD51CA21AB30AC40A38
:10077000D50AC601B501A40193010E9470307B0126
:100780008C01C601B501A40193010E947030C9011A
:10079000DA013C014D01C401B30121962CAD3DAD00
:1007A0004EAD5FAD21970E9451309B01AC01870196
:1007B000FF24EE2489A59AA5ABA5BCA5A070B070B6
:1007C00057016801A82AB92ACA2ADB2AA216B30649
:1007D000C406D506E0F40894610871088108910800
:1007E000A20CB31CC41CD51CA214B304C404D504AD
:1007F00070F0A216B306C406D50648F40894610842
:10080000710881089108A20CB31CC41CD51C8DA5CD
:100810009EA5AFA5B8A96F960FAC6F9704C0880FBF
:10082000991FAA1FBB1F0A94D2F78DA79EA7AFA737
:10083000B8ABA21AB30AC40AD50A2596ECACFDAC33
:100840000EAD1FAD2597D70199278827682A792AE9
:100850008A2A9B2A82012227332729960CAF1DAFB3
:100860002EAF3FAF2997A2019101407050702D9695
:100870002CAF3DAF4EAF5FAF2D97C601B5012996A6
:100880002CAD3DAD4EAD5FAD29970E9470307B0120
:100890008C01C601B50129962CAD3DAD4EAD5FADC5
:1008A00029970E947030C901DA0161968CAF9DAF23
:1008B000AEAFBFAF6197BC01CD012D962CAD3DAD64
:1008C0004EAD5FAD2D970E9451309B01AC01870169
:1008D000FF24EE24ADA4BEA4CFA4D8A8C601AA27A5
:1008E000BB2757016801A82AB92ACA2ADB2AA216FF
:1008F000B306C406D50660F561966CAD7DAD8EADD0
:100900009FAD6197615070408040904061966CAFA0
:100910007DAF8EAF9FAF6197A20CB31CC41CD51CDA
:10092000A214B304C404D50498F0A216B306C406F6
:10093000D50670F4615070408040904061966CAF75
:100940007DAF8EAF9FAF6197A20CB31CC41CD51CAA
:10095000A21AB30AC40AD50AC601B50129962CAD5C
:100960003DAD4EAD5FAD29970E9470307B018C018B
:10097000C601B50129962CAD3DAD4EAD5FAD2997B1
:100980000E947030C901DA015C016D01C601B50138
:100990002D962CAD3DAD4EAD5FAD2D970E945130E3
:1009A0009B01AC018701FF24EE248DA59EA5AFA578
:1009B000B8A9A070B070E82AF92A0A2B1B2BE216FE
:1009C000F30604071507C0F40894A108B108C1088C
:1009D000D108E20CF31C041D151DE214F3040405F8
:1009E000150550F0E216F3060407150728F40894DD
:1009F000A108B108C108D1086196ECACFDAC0EAD00
:100A00001FAD6197D7019927882796018501082B8B
:100A1000192B2A2B3B2B09AB1AAB2BAB3CAB62C27D
:100A20006E147F048006910608F451C220E0E2169D
:100A300020E0F20621E0020720E0120788F43FEFF1
:100A4000E316F1040105110531F028F048E050E00B
:100A500060E070E017C040E050E060E070E012C07D
:100A600040E0E41640E0F40640E0040741E01407EB
:100A700028F048E150E060E070E004C040E150E060
:100A800060E070E0D801C701042E04C0B695A795B8
:100A9000979587950A94D2F788599F4FDC012C913E
:100AA00030E2A32EB12CC12CD12CD601C501841B60
:100AB000950BA60BB70B821B9109A109B1090097F1
:100AC000A105B10589F4E614F7040805190508F431
:100AD000F2C16DA47EA48FA498A862147304840448
:100AE000950408F0E8C1F3C16E968FAF6E97082E9B
:100AF00004C0EE0CFF1C001F111F0A94D2F76A2DD0
:100B0000681BD201C101062E04C0B695A795979522
:100B100087950A94D2F75C016D01AE28BF28C02AE0
:100B2000D12AADA2BEA2CFA2D8A6720161016E9653
:100B30000FAC6E9704C0CC0CDD1CEE1CFF1C0A949D
:100B4000D2F7C9A2DAA2EBA2FCA264015301062EDD
:100B500004C0D694C794B794A7940A94D2F7D4014A
:100B6000C3016E960FAC6E9704C0880F991FAA1F21
:100B7000BB1F0A94D2F7EDA4FEA40FA518A904C0C8
:100B800016950795F794E7946A95D2F737014801CF
:100B9000682A792A8A2A9B2A6D8E7E8E8F8E98A249
:100BA000EDA0FEA00FA118A5380188249924980172
:100BB00087012070307065960CAF1DAF2EAF3FAF30
:100BC0006597C601B501A40193010E9470307B01B5
:100BD0008C01C601B501A40193010E947030C901C6
:100BE000DA011C012D01C201B10165962CAD3DADAC
:100BF0004EAD5FAD65970E9451309B01AC018701FE
:100C0000FF24EE24AD8CBE8CCF8CD8A0C601AA27C1
:100C1000BB2757016801A82AB92ACA2ADB2AA216CB
:100C2000B306C406D50600F508942108310841082A
:100C30005108EDA0FEA00FA118A5AE0CBF1CC01E50
:100C4000D11EAE14BF04C006D10670F0A216B306C2
:100C5000C406D50648F40894210831084108510813
:100C6000AE0CBF1CC01ED11EA21AB30AC40AD50AFC
:100C7000C601B501A40193010E9470307B018C0173
:100C8000C601B501A40193010E947030C901DA01C7
:100C90003C014D01C401B30165962CAD3DAD4EAD97
:100CA0005FAD65970E9451309B01AC018701FF2425
:100CB000EE248D8D9E8DAF8DB8A1A070B0705701C0
:100CC0006801A82AB92ACA2ADB2AA216B306C406D2
:100CD000D50600F5089461087108810891086DA196
:100CE0007EA18FA198A5A60EB71EC81ED91EA61656
:100CF000B706C806D90670F0A216B306C406D50614
:100D000048F408946108710881089108A60EB71E7E
:100D1000C81ED91ED601C501821B930BA40BB50BAF
:100D2000898F9A8FAB8FBC8FD10199278827640157
:100D30005301A82AB92ACA2ADB2AA9AABAAACBAA85
:100D4000DCAA860175012FEF3FEF40E050E0E22280
:100D5000F32204231523A601662777276D964CAF4F
:100D60005DAF6EAF7FAF6D97A9A0BAA0CBA0DCA09E
:100D70006FEF7FEF80E090E0A622B722C822D92251
:100D800089A19AA1ABA1BCA11D0144245524C8018D
:100D9000B701A60195010E94513069966CAF7DAFF5
:100DA0008EAF9FAF6997C801B701A20191010E9460
:100DB00051303B014C016D966CAD7DAD8EAD9FAD5C
:100DC0006D97A60195010E9451307B018C016D96B3
:100DD0006CAD7DAD8EAD9FAD6D97A20191010E946E
:100DE00051305B016C01A8019701260D371D481D8C
:100DF000591D69966CAC7DAC8EAC9FAC6997C401F3
:100E0000AA27BB27280F391F4A1F5B1F2E153F0536
:100E10004007510748F4E12CF12C61E0062F112D19
:100E2000AE0CBF1CC01ED11ECA01AA27BB27BC0125
:100E3000CD016A0D7B1D8C1D9D1D698C7A8C8B8C60
:100E40009C8C661677068806990640F1661577052C
:100E50008805990509F043C0D90199278827699623
:100E60002CAD3DAD4EAD5FAD699740705070820FB7
:100E7000931FA41FB51F2DA53EA54FA558A96E967B
:100E80000FAC6E9704C0220F331F441F551F0A94E6
:100E9000D2F7281739074A075B0708F509A91AA9E5
:100EA0002BA93CA9015010402040304009AB1AAB9F
:100EB0002BAB3CAB14C066247724430121E030E027
:100EC00040E050E029AB3AAB4BAB5CAB0BC06624C7
:100ED0007724430119AA1AAA1BAA1CAA03C06624D4
:100EE00077244301FE01719688E0DF011D928A9507
:100EF000E9F7A9A8BAA8CBA8DCA8A98ABA8ACB8A9C
:100F0000DC8A6D8A7E8A8F8A988E29A93A894B89D4
:100F10005C89662D7E898F89988DC25ADF4FE2E108
:100F20000C94AE30ABE5B0E0E8E9F7E00C94923019
:100F3000A8E04E010894811C911CF4016A2E1192C4
:100F40006A94E9F729833A834B835C836D837E83BC
:100F50008F839887CE010996FC011192AA95E9F733
:100F6000A986BA86CB86DC86ED86FE860F87188B2F
:100F700029843A844B845C84AD84BE84CF84D88831
:100F800029813A814B815C8169962FAF69976A9676
:100F90003FAF6A976B964FAF6B976C965FAF6C974E
:100FA0006C966CAC7DAC8EAC9FAC6C9769AA7AAA3F
:100FB0008BAA9CAA6D817E818F8198853B014C0113
:100FC0006DAA7EAA8FAA98AEA114B104C104D1045F
:100FD00009F004C3621473048404950408F000C18A
:100FE00000E0201600E0300601E0400600E0500678
:100FF00088F41FEF211631044104510439F030F018
:1010000088E0E82EF12C012D112D18C0EE24FF24CC
:10101000870114C040E0241640E0340640E0440656
:1010200041E0540630F0B8E1EB2EF12C012D112DEA
:1010300005C0A0E1EA2EF12C012D112DD201C10134
:101040000E2C04C0B695A795979587950A94D2F76C
:1010500088599F4FDC012C9180E290E0A0E0B0E045
:101060008E199F09A00BB10B5C016D01A21AB1088A
:10107000C108D108A9AEBAAECBAEDCAEA114B104A2
:10108000C104D10409F43FC069AD062E04C0220C8E
:10109000331C441C551C0A94D2F7A4019301062E5C
:1010A00004C0220F331F441F551F0A94D2F780E259
:1010B00090E08A199B096C96CCACDDACEEACFFAC31
:1010C0006C9704C0F694E794D794C7948A95D2F7A6
:1010D00087017601E22AF32A042B152BEDAAFEAA3A
:1010E0000FAB18AF6C968CAD9DADAEADBFAD6C9730
:1010F00004C0880F991FAA1FBB1F6A95D2F789AB3E
:101100009AABABABBCAB320188249924B201A101EC
:101110006070707021964CAF5DAF6EAF7FAF21975E
:101120006DA97EA98FA998ADA40193010E9470308A
:101130007B018C016DA97EA98FA998ADA4019301B3
:101140000E947030CA01B90121962CAD3DAD4EAD63
:101150005FAD21970E9451309B01AC018701FF24B4
:10116000EE24A9A8BAA8CBA8DCA8C601AA27BB2749
:1011700057016801A82AB92ACA2ADB2AA216B3068F
:10118000C406D50690F4A20CB31CC41CD51CA21432
:10119000B304C404D50448F0A216B306C406D506A9
:1011A00020F4A20CB31CC41CD51CA21AB30AC40A96
:1011B000D50AC601B501A40193010E9470307B01DC
:1011C0008C01C601B501A40193010E947030CA01CF
:1011D000B90121962CAD3DAD4EAD5FAD2197BAC1A1
:1011E000211431044104510471F461E070E080E0A5
:1011F00090E020E030E040E050E00E947030C90113
:10120000DA011C012D0100E0201600E0300601E0AB
:10121000400600E0500688F41FEF21163104410417
:10122000510439F030F068E0E62EF12C012D112D3B
:1012300018C0EE24FF24870114C040E0241640E0CB
:10124000340640E0440641E0540630F058E1E52E13
:10125000F12C012D112D05C040E1E42EF12C012DC2
:10126000112DD201C1010E2C04C0B695A7959795FA
:1012700087950A94D2F788599F4FDC012C9130E270
:10128000A32EB12CC12CD12CD601C5018E199F09DA
:10129000A00BB10B7C018D01E21AF10801091109C3
:1012A000E9AEFAAE0BAF1CAFE114F1040105110574
:1012B00039F464015301A218B308C408D508E2C088
:1012C000F9AC6896FFAE68970F2C04C0220C331C53
:1012D000441C551C0A94D2F78A2D8F1964015301BE
:1012E000082E04C0D694C794B794A7940A94D2F752
:1012F000A401930104C0220F331F441F551FFA9409
:10130000D2F76C966CAC7DAC8EAC9FAC6C9704C085
:1013100096948794779467948A95D2F784017301A1
:10132000E22AF32A042B152BEDA6FEA60FA718AB75
:10133000320188249924B201A10160707070259651
:101340004CAF5DAF6EAF7FAF2597C601B501A4016D
:1013500093010E9470307B018C01C601B501A4018C
:1013600093010E947030CA01B90125962CAD3DADA4
:101370004EAD5FAD25970E9451309B01AC018701B6
:10138000FF24EE24ADA4BEA4CFA4D8A8C601AA27EA
:10139000BB275C016D01AE28BF28C02AD12AA21646
:1013A000B306C406D50690F4A20CB31CC41CD51C0D
:1013B000A214B304C404D50448F0A216B306C406AC
:1013C000D50620F4A20CB31CC41CD51CA21AB30A67
:1013D000C40AD50AC601B501A40193010E94703068
:1013E0007B018C01C601B501A40193010E947030FC
:1013F000CA01B90125962CAD3DAD4EAD5FAD259727
:101400000E9451309B01AC018701FF24EE248DA581
:101410009EA5AFA5B8A9A070B07057016801A82A11
:10142000B92ACA2ADB2AA216B306C406D50690F446
:10143000A20CB31CC41CD51CA214B304C404D50450
:1014400048F0A216B306C406D50620F4A20CB31CBD
:10145000C41CD51C6C96ECACFDAC0EAD1FAD6C97EE
:1014600068960FAC689704C0EE0CFF1C001F111F9C
:101470000A94D2F7E9AAFAAA0BAB1CABA21AB30AD8
:10148000C40AD50A320188249924B201A1016070EE
:10149000707029964CAF5DAF6EAF7FAF2997C601D4
:1014A000B501A40193010E9470307B018C01C6013B
:1014B000B501A40193010E947030CA01B9012996B7
:1014C0002CAD3DAD4EAD5FAD29970E9451309B01D3
:1014D000AC018701FF24EE24A9A8BAA8CBA8DCA8F8
:1014E000C601AA27BB2757016801A82AB92ACA2A18
:1014F000DB2AA216B306C406D50690F4A20CB31CD0
:10150000C41CD51CA214B304C404D50448F0A2160C
:10151000B306C406D50620F4A20CB31CC41CD51C0B
:10152000A21AB30AC40AD50AC601B501A4019301DF
:101530000E9470307B018C01C601B501A4019301AA
:101540000E947030CA01B90129962CAD3DAD4EAD57
:101550005FAD29970E9451309B01AC018701FF24A8
:10156000EE2489A99AA9ABA9BCA9A070B070E82AF9
:10157000F92A0A2B1B2BE216F3060407150790F431
:10158000E20CF31C041D151DE214F30404051505FB
:1015900048F0E216F3060407150720F4E20CF31CEA
:1015A000041D151DE21AF30A040B150BD801C7011F
:1015B00009AC04C0B695A795979587950A94D2F77C
:1015C000898B9A8BAB8BBC8B1D8A1E8A1F8A188EC7
:1015D000282F3A894B895C896D890CC36A147B0476
:1015E0008C049D0408F409C300E0A01600E0B006D6
:1015F00001E0C00600E0D00688F41FEFA116B10498
:10160000C104D10439F030F028E0E22EF12C012D94
:10161000112D18C0EE24FF24870114C040E0A41649
:1016200040E0B40640E0C40641E0D40630F098E162
:10163000E92EF12C012D112D05C080E1E82EF12CB1
:10164000012D112DD601C5010E2C04C0B695A7950C
:10165000979587950A94D2F788599F4FDC012C9172
:1016600080E290E0A0E0B0E08E199F09A00BB10BE2
:10167000821B9109A109B1090097A105B10509F0E3
:101680004FC0A614B704C804D90458F06C96ECAC4B
:10169000FDAC0EAD1FAD6C97E214F3040405150507
:1016A00068F16C96ECACFDAC0EAD1FAD6C97E2181A
:1016B000F30804091509A40193012A193B094C09EF
:1016C0005D09AA24BB2465016C966CAD7DAD8EAD21
:1016D0009FAD6C976E157F058007910728F4B1E0E8
:1016E000AB2EB12CC12CD12CDA01C9018A199B096E
:1016F000AC09BD098DAB9EABAFABB8AFE98AFA8A36
:101700000B8B1C8B6DA87EA88FA898AC6D8A7E8AE7
:101710008F8A988E2E2D3A894B895C896DA96AC271
:1017200067968FAF6797A6019501082E04C0220F18
:10173000331F441F551F0A94D2F7A0E2AA2EA81AFD
:101740006696AFAE6697D201C10104C0B695A79563
:1017500097958795AA94D2F76C017D01C22AD32A66
:10176000E42AF52AC9A6DAA6EBA6FCA68201710135
:1017700067960FAC679704C0EE0CFF1C001F111F8B
:101780000A94D2F7EDA2FEA20FA318A76401530199
:1017900066960FAC669704C0D694C794B794A79486
:1017A0000A94D2F7A401930167960FAC679704C01F
:1017B000220F331F441F551F0A94D2F76C968CAD2D
:1017C0009DADAEADBFAD6C9766960FAC669704C08D
:1017D000B695A795979587950A94D2F73C014D0148
:1017E000622A732A842A952A69A27AA28BA29CA2D1
:1017F0006C96ECACFDAC0EAD1FAD6C9767960FAC64
:10180000679704C0EE0CFF1C001F111F0A94D2F74B
:10181000ED8EFE8E0F8F18A349A55AA56BA57CA54A
:101820003B0188249924607070702D964CAF5DAF99
:101830006EAF7FAF2D97C601B501A40193010E9441
:1018400070307B018C01C601B501A40193010E9497
:101850007030C901DA011C012D01C201B1012D96C0
:101860002CAD3DAD4EAD5FAD2D970E9451309B012B
:10187000AC018701FF24EE24A9A0BAA0CBA0DCA074
:10188000C601AA27BB2757016801A82AB92ACA2A74
:10189000DB2AA216B306C406D50600F50894210873
:1018A000310841085108E9A4FAA40BA51CA5AE0C07
:1018B000BF1CC01ED11EAE14BF04C006D10670F0FE
:1018C000A216B306C406D50648F4089421083108C8
:1018D00041085108AE0CBF1CC01ED11EA21AB30A8B
:1018E000C40AD50AC601B501A40193010E94703053
:1018F0007B018C01C601B501A40193010E947030E7
:10190000C901DA013C014D01C401B3012D962CAD92
:101910003DAD4EAD5FAD2D970E9451309B01AC01A6
:101920008701FF24EE2489A19AA1ABA1BCA1A070DC
:10193000B07057016801A82AB92ACA2ADB2AA21660
:10194000B306C406D50600F508946108710881083D
:10195000910869A57AA58BA59CA5A60EB71EC81EE1
:10196000D91EA616B706C806D90670F0A216B30689
:10197000C406D50648F408946108710881089108E6
:10198000A60EB71EC81ED91ED601C501821B930B19
:10199000A40BB50B898F9A8FAB8FBC8FD101992780
:1019A000882784017301E82AF92A0A2B1B2B4FEFA1
:1019B000A42E4FEFB42EC12CD12CAE20BF20C022BC
:1019C000D1227801002711276DA07EA08FA098A4B6
:1019D0004FEF5FEF60E070E064227522862297226D
:1019E0008DA19EA1AFA1B8A5BD01882799276596B5
:1019F0006CAF7DAF8EAF9FAF6597C601B501A401F7
:101A000093010E94513061966CAF7DAF8EAF9FAF56
:101A10006197C601B50165962CAD3DAD4EAD5FAD8C
:101A200065970E9451301B012C01C801B701A40128
:101A300093010E9451305B016C01C801B7016596AA
:101A40002CAD3DAD4EAD5FAD65970E9451307B0131
:101A50008C01A6019501220D331D441D551D619673
:101A60006CAC7DAC8EAC9FAC6197C401AA27BB2740
:101A7000280F391F4A1F5B1F2A153B054C055D05C2
:101A800048F4812C912CE1E0AE2EB12CE80CF91C2D
:101A90000A1D1B1DCA01AA27BB2757016801A80EF2
:101AA000B91ECA1EDB1EA9013327222761968CAD01
:101AB0009DADAEADBFAD6197A070B070280F391F5E
:101AC0004A1F5B1FE98CFA8C0B8D1C8DEA14FB04FA
:101AD0000C051D0570F0AE14BF04C006D10669F5F3
:101AE0006D8D7E8D8F8D98A1621773078407950782
:101AF00020F5DA01C9016DA07EA08FA098A48619F7
:101B00009709A809B909E9A4FAA40BA51CA5AE1860
:101B1000BF08C00AD10AEE24FF248701281739071D
:101B20004A075B0728F421E0E22EF12C012D112D4C
:101B3000AE18BF08C00AD10A02C0DA01C9016D8C13
:101B40007E8C8F8C98A0681A790A8A0A9B0A498D24
:101B50005A8D6B8D7C8D4A195B096C097D095A0180
:101B60006B012224332421016D8D7E8D8F8D98A1F0
:101B7000661577058805990528F481E0282E312C13
:101B8000412C512C86017501E218F308040915094E
:101B9000A801970166960FAC669704C0220F331F09
:101BA000441F551F0A94D2F7D401C30167960FACA6
:101BB000679704C0B695A795979587950A94D2F72D
:101BC000282B392B4A2B5B2B298B3A8B4B8B5C8B2D
:101BD00067960FAC679704C016950795F794E7943E
:101BE0000A94D2F7ED8AFE8A0F8B188F3A894B89B7
:101BF0005C896E2D7E898F89988DC55ADF4FE2E111
:101C00000C94AE30A0E0B0E0E8E0FEE00C9492303E
:101C1000DC012B01FA019C91923008F439C1EB01EF
:101C20008881823008F433C1943069F4843009F03B
:101C30002FC111969C9111978981981709F428C199
:101C4000A0E6B0E025C1843009F421C18230A9F4B6
:101C5000923009F01DC19A01AD0188E0EA010990B6
:101C6000AE01E90109929E018150C1F7E20189812B
:101C700011969C918923818308C1923009F407C190
:101C800012962D903C901397EB018A819B811496BC
:101C9000AD90BD90CD90DC901797EC80FD800E81CB
:101CA0001F819101281B390BB90137FF04C066273A
:101CB0007727621B730B603271050CF061C012163E
:101CC00013066CF537014801062E04C096948794DC
:101CD000779467940A94D2F721E030E040E050E036
:101CE00004C0220F331F441F551F6A95D2F721509D
:101CF0003040404050402E213F21402351232115A8
:101D000031054105510521F021E030E040E050E08F
:101D100079018A01E628F728082919293CC0232BD4
:101D2000D1F1260E371E35014601062E04C09694C9
:101D30008794779467940A94D2F721E030E040E0EA
:101D400050E004C0220F331F441F551F6A95D2F77D
:101D500021503040404050402A213B214C215D2100
:101D6000211531054105510521F021E030E040E029
:101D700050E059016A01A628B728C828D9280BC005
:101D8000821593052CF01C01AA24BB24650103C015
:101D9000EE24FF24870111969C91D20111968C911B
:101DA000981709F445C0992339F0A80197012A1919
:101DB0003B094C095D0906C0A60195012E193F0992
:101DC000400B510B57FD08C01182338222822483BD
:101DD0003583468357831DC081E08183338222820D
:101DE00088279927DC01821B930BA40BB50B8483F6
:101DF0009583A683B7830DC0220F331F441F551F41
:101E0000248335834683578382819381019793830B
:101E100082832481358146815781DA01C901019786
:101E2000A109B1098F5F9F4FAF4FBF4328F30BC08C
:101E3000918333822282EA0CFB1C0C1D1D1DE4825F
:101E4000F5820683178383E0808324813581468170
:101E5000578157FF1AC0C901AA2797FDA095BA2F2D
:101E600081709070A070B070569547953795279502
:101E7000822B932BA42BB52B84839583A683B783C6
:101E800082819381019693838283DF0101C0D20115
:101E9000CD01CDB7DEB7E2E10C94AE30A0E2B0E008
:101EA000E4E5FFE00C949E3069837A838B839C8306
:101EB0002D833E834F835887E9E0EE2EF12CEC0E04
:101EC000FD1ECE010196B7010E9452148E010F5ED5
:101ED0001F4FCE010596B8010E9452148A8991E0E5
:101EE00089278A8BC701B801AE01475E5F4F0E9408
:101EF000020E0E947D13A096E6E00C94BA30A0E298
:101F0000B0E0E5E8FFE00C949E3069837A838B8330
:101F10009C832D833E834F835887F9E0EF2EF12C6D
:101F2000EC0EFD1ECE010196B7010E9452148E01E7
:101F30000F5E1F4FCE010596B8010E945214C701D3
:101F4000B801AE01475E5F4F0E94020E0E947D13F2
:101F5000A096E6E00C94BA30A0E2B0E0E2EBFFE03D
:101F60000C94923069837A838B839C832D833E8388
:101F70004F835887CE010196BE01675F7F4F0E9455
:101F80005214CE010596BE016F5E7F4F0E9452141F
:101F90009985923088F089898230C8F0943019F49C
:101FA000823051F404C0843029F4923081F480E608
:101FB00090E0C6C0923049F420E09A858A8998134F
:101FC00021E02A87CE010996BBC0823049F420E087
:101FD0009A858A89981321E02A8BCE014196B0C058
:101FE0002D843E844F8458886D887E888F88988C95
:101FF000EE24FF248701AA24BB24650140E050E0C1
:1020000060E070E0E0E0F0E0C10181709070892B49
:10201000E9F0E60CF71C081D191D9A01AB012A0D09
:102020003B1D4C1D5D1D80E090E0A0E0B0E0E6149B
:10203000F7040805190520F481E090E0A0E0B0E085
:10204000BA01A901480F591F6A1F7B1FAA0CBB1CAC
:10205000CC1CDD1C97FE08C081E090E0A0E0B0E061
:10206000A82AB92ACA2ADB2A3196E032F10549F0BA
:10207000660C771C881C991C5694479437942794B7
:10208000C3CFFA85EA892B893C898B859C85280FEB
:10209000391F2E5F3F4F17C0CA0181709070892B86
:1020A00061F016950795F794E79480E090E0A0E042
:1020B000B0E8E82AF92A0A2B1B2B769567955795E5
:1020C00047952F5F3F4F77FDE7CF0CC0440F551F5B
:1020D000661F771F17FD4160EE0CFF1C001F111FCC
:1020E00021503040403090E0590790E0690790E47B
:1020F000790760F32B8F3C8FDB01CA018F779070DB
:10210000A070B07080349105A105B10561F447FD60
:102110000AC0E114F1040105110529F0405C5F4F8C
:102120006F4F7F4F40781A8EFE1711F081E08A8F33
:102130004D8F5E8F6F8F78A383E0898FCE01499694
:102140000E947D13A096E2E10C94AE30A8E1B0E0CD
:10215000ECEAF0E10C949A3069837A838B839C8358
:102160002D833E834F835887B9E0EB2EF12CEC0E84
:10217000FD1ECE010196B7010E9452148E010F5E22
:102180001F4FCE010596B8010E94521429852230B6
:1021900008F47EC03989323010F4B8017CC08A85D9
:1021A0009A8989278A87243011F0223031F4231745
:1021B00009F06EC060E670E06EC0343039F41D8600
:1021C0001E861F86188A1C861B8604C0323021F4A6
:1021D00084E08987B7015FC02B853C858B899C890A
:1021E000281B390B3C872B87ED84FE840F851889CB
:1021F000AD88BE88CF88D88CEA14FB040C051D0579
:1022000040F4EE0CFF1C001F111F215030403C8792
:102210002B8720E030E040E050E080E090E0A0E05C
:10222000B0E460E070E0EA14FB040C051D0540F02A
:10223000282B392B4A2B5B2BEA18FB080C091D09AC
:10224000B695A79597958795EE0CFF1C001F111F5B
:102250006F5F7F4F6F31710531F7DA01C9018F77F9
:102260009070A070B07080349105A105B10561F443
:1022700027FD0AC0E114F1040105110529F0205CD5
:102280003F4F4F4F5F4F20782D873E874F87588BAA
:10229000BE01675F7F4FCB010E947D136896EAE025
:1022A0000C94B630A8E1B0E0E8E5F1E10C949E3082
:1022B00069837A838B839C832D833E834F835887E6
:1022C00089E0E82EF12CEC0EFD1ECE010196B7013F
:1022D0000E9452148E010F5E1F4FCE010596B80169
:1022E0000E9452148985823040F08989823028F01A
:1022F000C701B8010E94CA1401C08FEF6896E6E0DA
:102300000C94BA30A8E1B0E0E8E8F1E10C949E301A
:1023100069837A838B839C832D833E834F83588785
:1023200089E0E82EF12CEC0EFD1ECE010196B701DE
:102330000E9452148E010F5E1F4FCE010596B80108
:102340000E9452148985823040F08989823028F0B9
:10235000C701B8010E94CA1401C08FEF6896E6E079
:102360000C94BA30A8E1B0E0E8EBF1E10C949E30B7
:1023700069837A838B839C832D833E834F83588725
:1023800089E0E82EF12CEC0EFD1ECE010196B7017E
:102390000E9452148E010F5E1F4FCE010596B801A8
:1023A0000E9452148985823040F08989823028F059
:1023B000C701B8010E94CA1401C081E06896E6E036
:1023C0000C94BA30ACE0B0E0E8EEF1E10C94A2304D
:1023D00069837A838B839C83CE010196BE016B5FF8
:1023E0007F4F0E9452148D81823061F1823050F112
:1023F000843021F48E81882351F12EC02F813885BD
:1024000037FD20C06E812F3131051CF06623F9F0B5
:1024100023C08EE190E0821B930B29853A854B8582
:102420005C8504C056954795379527958A95D2F7D0
:102430006623B1F050954095309521953F4F4F4F11
:102440005F4F0EC020E030E040E050E009C02FEFC9
:102450003FEF4FEF5FE704C020E030E040E050E89E
:10246000B901CA012C96E2E00C94BE30A8E0B0E0BD
:10247000ECE3F2E10C949A307B018C01611571055B
:102480008105910519F482E0898360C083E0898326
:102490008EE1C82ED12CDC82CB82ED82FE820F83AE
:1024A0001887C801B7010E942E13FC013197F7FF6E
:1024B0003BC0222733272E1B3F0B57016801022EFA
:1024C00004C0D694C794B794A7940A94D2F740E076
:1024D00050E060E070E081E090E0A0E0B0E004C097
:1024E000880F991FAA1FBB1F2A95D2F70197A10930
:1024F000B1098E219F21A023B1230097A105B10529
:1025000021F041E050E060E070E04A295B296C294D
:102510007D294D835E836F8378878EE190E08E1BEB
:102520009F0B9C838B8312C0309781F00E2E04C0CA
:10253000EE0CFF1C001F111F0A94D2F7ED82FE82E1
:102540000F831887CE1ADF0ADC82CB821A82CE0173
:1025500001960E947D132896EAE00C94B630EF9223
:10256000FF920F93DF93CF93CDB7DEB760970FB68F
:10257000F894DEBF0FBECDBFA82F002309F461C0C1
:102580007E010894E11CF11C88E0F70111928A9504
:10259000E9F729833A834B835C836D837E83AF8322
:1025A000988780E2801BE82FFF27E7FDF09549819F
:1025B0005A816B817C81181684F019861A861B86D5
:1025C0001C86882799278E1B9F0B04C0440F551F1C
:1025D000661F771F8A95D2F728C0202F332727FD43
:1025E0003095DB01CA01022E04C0880F991FAA1F73
:1025F000BB1F0A94D2F789879A87AB87BC8704C030
:102600007695679557954795EA95D2F78D819E8186
:10261000AF81B88504C0880F991FAA1FBB1F2A95D8
:10262000D2F7482B592B6A2B7B2B4D875E876F8700
:10263000788B29853A854B855C856D857E85AF8550
:1026400098898A2F60960FB6F894DEBF0FBECDBF73
:10265000CF91DF910F91FF90EF900895EF92FF924D
:102660000F931F937B018C0180E0E81680E0F80651
:1026700081E0080780E0180788F48FEFE816F1047E
:102680000105110531F028F088E090E0A0E0B0E00D
:1026900017C080E090E0A0E0B0E012C080E0E81653
:1026A00080E0F80680E0080781E0180728F088E15C
:1026B00090E0A0E0B0E004C080E190E0A0E0B0E0F5
:1026C00020E230E040E050E0281B390B4A0B5B0B66
:1026D00004C016950795F794E7948A95D2F7F70109
:1026E000E859FF4F8081281B310941095109C9016F
:1026F0001F910F91FF90EF900895DF92EF92FF925C
:102700000F931F93FC01E480F58006811781D1802F
:102710008081823048F480E090E0A0E1B0E0E82AD7
:10272000F92A0A2B1B2BA5C0843009F49FC08230E4
:1027300021F4EE24FF24870105C0E114F104010512
:10274000110519F4E0E0F0E096C0628173819FEF1B
:10275000623879070CF05BC022E83FEF261B370B8D
:102760002A3131052CF020E030E040E050E02AC072
:10277000B801A701022E04C0769567955795479535
:102780000A94D2F781E090E0A0E0B0E004C0880FA6
:10279000991FAA1FBB1F2A95D2F70197A109B1095A
:1027A0008E219F21A023B1230097A105B10521F01F
:1027B00081E090E0A0E0B0E09A01AB01282B392B3A
:1027C0004A2B5B2BDA01C9018F779070A070B07033
:1027D00080349105A105B10539F427FF09C0205CBB
:1027E0003F4F4F4F5F4F04C0215C3F4F4F4F5F4FF4
:1027F000E0E0F0E02030A0E03A07A0E04A07A0E4E3
:102800005A0710F0E1E0F0E079018A0127C0603852
:10281000710564F5FB01E158FF4FD801C7018F77BF
:102820009070A070B07080349105A105B10539F4A5
:10283000E7FE0DC080E490E0A0E0B0E004C08FE3CC
:1028400090E0A0E0B0E0E80EF91E0A1F1B1F17FF82
:1028500005C016950795F794E794319687E016958D
:102860000795F794E7948A95D1F705C0EE24FF24E5
:102870008701EFEFF0E06E2F679566276795902F41
:102880009F77D794DD24D7948E2F8695492F462B9A
:10289000582F5D29B701CA011F910F91FF90EF904A
:1028A000DF900895FC01DB01408151812281622F7C
:1028B0006F7770E0221F2227221F9381892F880FB4
:1028C000822B282F30E0991F9927991F11969C93EE
:1028D000119721153105A9F54115510561057105BE
:1028E00011F482E037C082E89FEF13969C938E9399
:1028F00012979A01AB0167E0220F331F441F551F47
:102900006A95D1F783E08C930DC0220F331F441FCB
:10291000551F12968D919C911397019713969C9336
:102920008E931297203080E0380780E0480780E4DB
:10293000580758F314962D933D934D935C93179736
:1029400008952F3F310579F4411551056105710551
:1029500019F484E08C93089564FF03C081E08C93A4
:1029600012C01C9210C02F57304013963C932E93E8
:10297000129783E08C9387E0440F551F661F771FE3
:102980008A95D1F7706414964D935D936D937C9303
:10299000179708951F93DC01FB019C91923008F476
:1029A00047C08081823008F443C0943051F41196BE
:1029B0001C91843099F58181682F70E0611B710949
:1029C0003FC0843021F0923031F48230B9F18181FE
:1029D000882389F12DC011961C9111978230F1F056
:1029E00081811817D9F412962D913C911397828109
:1029F00093818217930794F028173907BCF0149637
:102A00008D919D910D90BC91A02D248135814681A1
:102A10005781281739074A075B0718F4112341F03B
:102A20000AC082179307A407B50740F4112319F0D1
:102A300061E070E005C06FEF7FEF02C060E070E022
:102A4000CB011F9108950F931F93DF93CF93CDB7C1
:102A5000DEB7C256D0400FB6F894DEBF0FBECDBF72
:102A600083E061E00E947F2581E061E00E947F2594
:102A700082E061E00E947F2584E061E00E947F2582
:102A800085E061E00E947F2586E061E00E947F256D
:102A900087E061E00E947F25FE01E15AFF4F80E060
:102AA00090E0ACE0B2E480839183A283B3838E0193
:102AB000055A1F4FFE01E15AFF4F608171818281EB
:102AC000938120E030E04AEF54E40E94AC0FDC0137
:102AD000CB01F80180839183A283B383FE01E55A81
:102AE000FF4F608171818281938120E030E040E876
:102AF0005FE30E94B211882344F4FE01E75AFF4FBE
:102B000081E090E09183808364C0FE01E55AFF4F2D
:102B1000608171818281938120E03FEF4FE757E42C
:102B20000E94521118160CF043C0FE01E15AFF4FEB
:102B3000608171818281938120E030E040E251E444
:102B40000E94AC0FDC01CB018E01075A1F4FBC0164
:102B5000CD010E944900DC01CB01F8019183808303
:102B60001FC0FE01E95AFF4F88EC90E091838083FB
:102B7000FE01E95AFF4F808191810197F1F7FE0133
:102B8000E95AFF4F91838083DE01A75ABF4FFE01B0
:102B9000E75AFF4F80819181019711969C938E9304
:102BA000FE01E75AFF4F808191810097D1F627C03F
:102BB0008E01075A1F4FFE01E55AFF4F6081718158
:102BC000828193810E944900DC01CB01F80191834D
:102BD0008083DE01AB5ABF4FFE01E75AFF4F808171
:102BE00091818D939C93FE01EB5AFF4F80819181DF
:102BF0000197F1F7FE01EB5AFF4F9183808383E346
:102C00000E941D19FE01EF5AFF4F80E090E0A0E006
:102C1000B0E480839183A283B3838E01035B1F4F53
:102C2000FE01EF5AFF4F608171818281938120E024
:102C300030E04AEF54E40E94AC0FDC01CB01F80114
:102C400080839183A283B383FE01E35BFF4F6081A6
:102C500071818281938120E030E040E85FE30E944F
:102C6000B211882344F4FE01E55BFF4F81E090E060
:102C70009183808364C0FE01E35BFF4F60817181BB
:102C80008281938120E03FEF4FE757E40E94521189
:102C900018160CF043C0FE01EF5AFF4F608171819E
:102CA0008281938120E030E040E251E40E94AC0F49
:102CB000DC01CB018E01055B1F4FBC01CD010E94E1
:102CC0004900DC01CB01F801918380831FC0FE0124
:102CD000E75BFF4F88EC90E091838083FE01E75B28
:102CE000FF4F808191810197F1F7FE01E75BFF4F74
:102CF00091838083DE01A55BBF4FFE01E55BFF4F43
:102D000080819181019711969C938E93FE01E55BE2
:102D1000FF4F808191810097D1F627C08E01055B1E
:102D20001F4FFE01E35BFF4F6081718182819381C0
:102D30000E944900DC01CB01F80191838083DE0110
:102D4000A95BBF4FFE01E55BFF4F808191818D93B1
:102D50009C93FE01E95BFF4F808191810197F1F720
:102D6000FE01E95BFF4F9183808382E30E941D197E
:102D7000FE01ED5BFF4F80E090E0A0E0B0E48083D7
:102D80009183A283B3838E01015C1F4FFE01ED5B33
:102D9000FF4F608171818281938120E030E04AEFB2
:102DA00054E40E94AC0FDC01CB01F80180839183D5
:102DB000A283B383FE01FF9660817181828193813A
:102DC00020E030E040E85FE30E94B21188232CF459
:102DD00081E090E09EAF8DAF46C0FE01FF9660811E
:102DE00071818281938120E03FEF4FE757E40E9499
:102DF0005211181664F5FE01ED5BFF4F6081718181
:102E00008281938120E030E040E251E40E94AC0FE7
:102E1000DC01CB01BC01CD010E944900DC01CB01EA
:102E20009EAF8DAF0FC088EC90E09CAF8BAF8BADA9
:102E30009CAD0197F1F79CAF8BAF8DAD9EAD019727
:102E40009EAF8DAF8DAD9EAD009769F716C0FE01A8
:102E5000FF9660817181828193810E944900DC012B
:102E6000CB019EAF8DAF8DAD9EAD9AAF89AF89ADD1
:102E70009AAD0197F1F79AAF89AF88E20E941D19C8
:102E800080E090E0A0E0B0E48DAB9EABAFABB8AF1C
:102E90006DA97EA98FA998AD20E030E04AEF54E4F7
:102EA0000E94AC0FDC01CB0189AB9AABABABBCABE6
:102EB00069A97AA98BA99CA920E030E040E85FE3EA
:102EC0000E94B21188232CF481E090E098AB8FA788
:102ED0003FC069A97AA98BA99CA920E03FEF4FE7E1
:102EE00057E40E94521118164CF56DA97EA98FA9BE
:102EF00098AD20E030E040E251E40E94AC0FDC01EC
:102F0000CB01BC01CD010E944900DC01CB0198AB93
:102F10008FA70FC088EC90E09EA78DA78DA59EA5DA
:102F20000197F1F79EA78DA78FA598A9019798AB58
:102F30008FA78FA598A9009769F714C069A97AA9E6
:102F40008BA99CA90E944900DC01CB0198AB8FA7FB
:102F50008FA598A99CA78BA78BA59CA50197F1F796
:102F60009CA78BA78CE00E941D1980E090E0A0E058
:102F7000B0E48FA398A7A9A7BAA76FA178A589A540
:102F80009AA520E030E04AEF54E40E94AC0FDC0147
:102F9000CB018BA39CA3ADA3BEA36BA17CA18DA1F0
:102FA0009EA120E030E040E85FE30E94B211882358
:102FB0002CF481E090E09AA389A33FC06BA17CA18F
:102FC0008DA19EA120E03FEF4FE757E40E945211F0
:102FD00018164CF56FA178A589A59AA520E030E0D8
:102FE00040E251E40E94AC0FDC01CB01BC01CD01F9
:102FF0000E944900DC01CB019AA389A30FC088EC91
:1030000090E098A38F8F8F8D98A10197F1F798A3E7
:103010008F8F89A19AA101979AA389A389A19AA1C7
:10302000009769F714C06BA17CA18DA19EA10E949D
:103030004900DC01CB019AA389A389A19AA19E8FA3
:103040008D8F8D8D9E8D0197F1F79E8F8D8F86E0F0
:103050000E941D1980E090E0A0E0B0E4898F9A8F73
:10306000AB8FBC8F698D7A8D8B8D9C8D20E030E08D
:103070004AEF54E40E94AC0FDC01CB018D8B9E8B98
:10308000AF8BB88F6D897E898F89988D20E030E075
:1030900040E85FE30E94B21188232CF481E090E0C5
:1030A0009C8B8B8B3FC06D897E898F89988D20E0AA
:1030B0003FEF4FE757E40E94521118164CF5698D07
:1030C0007A8D8B8D9C8D20E030E040E251E40E94AF
:1030D000AC0FDC01CB01BC01CD010E944900DC0139
:1030E000CB019C8B8B8B0FC088EC90E09A8B898BEB
:1030F00089899A890197F1F79A8B898B8B899C89A9
:1031000001979C8B8B8B8B899C89009769F714C0E6
:103110006D897E898F89988D0E944900DC01CB01E1
:103120009C8B8B8B8B899C89988B8F878F859889BB
:103130000197F1F7988B8F8781E00E941D1980E03D
:1031400090E0A0E7B1E48B879C87AD87BE876B8555
:103150007C858D859E8520E030E04AEF54E40E9416
:10316000AC0FDC01CB018F839887A987BA876F8169
:10317000788589859A8520E030E040E85FE30E9409
:10318000B21188232CF481E090E09E838D833FC0B0
:103190006F81788589859A8520E03FEF4FE757E476
:1031A0000E94521118164CF56B857C858D859E8585
:1031B00020E030E040E251E40E94AC0FDC01CB01A2
:1031C000BC01CD010E944900DC01CB019E838D83AF
:1031D0000FC088EC90E09C838B838B819C8101974E
:1031E000F1F79C838B838D819E8101979E838D83D4
:1031F0008D819E81009769F714C06F8178858985DC
:103200009A850E944900DC01CB019E838D838D81CC
:103210009E819A83898389819A810197F1F79A83A4
:103220008983CE59DF4F0FB6F894DEBF0FBECDBFF6
:10323000CF91DF911F910F9108950F931F93DF930B
:10324000CF93CDB7DEB7C157D0400FB6F894DEBFED
:103250000FBECDBFFE01EF58FF4F808381E060E0DD
:103260000E942C24FE01E359FF4F80E090E0A0E88B
:10327000BFE380839183A283B3838E0107591F4FDD
:10328000FE01E359FF4F608171818281938120E0CB
:1032900030E04AEF54E40E94AC0FDC01CB01F801AE
:1032A00080839183A283B383FE01E759FF4F60813E
:1032B00071818281938120E030E040E85FE30E94E9
:1032C000B211882344F4FE01E959FF4F81E090E0F8
:1032D0009183808364C0FE01E759FF4F6081718153
:1032E0008281938120E03FEF4FE757E40E94521123
:1032F00018160CF043C0FE01E359FF4F6081718145
:103300008281938120E030E040E251E40E94AC0FE2
:10331000DC01CB018E0109591F4FBC01CD010E9478
:103320004900DC01CB01F801918380831FC0FE01BD
:10333000EB59FF4F88EC90E091838083FE01EB59BD
:10334000FF4F808191810197F1F7FE01EB59FF4F0B
:1033500091838083DE01A959BF4FFE01E959FF4FD8
:1033600080819181019711969C938E93FE01E9597A
:10337000FF4F808191810097D1F627C08E010959B6
:103380001F4FFE01E759FF4F608171818281938158
:103390000E944900DC01CB01F80191838083DE01AA
:1033A000AD59BF4FFE01E959FF4F808191818D9347
:1033B0009C93FE01ED59FF4F808191810197F1F7B8
:1033C000FE01ED59FF4F9183808383E060E00E940E
:1033D0002C24FE01E15AFF4F80E090E0A0E8BFE31B
:1033E00080839183A283B3838E01055A1F4FFE0110
:1033F000E15AFF4F608171818281938120E030E04A
:103400004AEF54E40E94AC0FDC01CB01F801808349
:103410009183A283B383FE01E55AFF4F60817181DE
:103420008281938120E030E040E85FE30E94B211A6
:10343000882344F4FE01E75AFF4F81E090E0918336
:10344000808364C0FE01E55AFF4F608171818281F3
:10345000938120E03FEF4FE757E40E945211181686
:103460000CF043C0FE01E15AFF4F608171818281FF
:10347000938120E030E040E251E40E94AC0FDC0197
:10348000CB018E01075A1F4FBC01CD010E9449009C
:10349000DC01CB01F801918380831FC0FE01E95A52
:1034A000FF4F88EC90E091838083FE01E95AFF4F43
:1034B000808191810197F1F7FE01E95AFF4F9183D5
:1034C0008083DE01A75ABF4FFE01E75AFF4F80817C
:1034D0009181019711969C938E93FE01E75AFF4FBD
:1034E000808191810097D1F627C08E01075A1F4F26
:1034F000FE01E55AFF4F60817181828193810E94B4
:103500004900DC01CB01F80191838083DE01AB5AD5
:10351000BF4FFE01E75AFF4F808191818D939C93AD
:10352000FE01EB5AFF4F808191810197F1F7FE0177
:10353000EB5AFF4F91838083ABE3B0E0EBE3F0E025
:103540008081982F9F70FE01EF58FF4F8081807F10
:10355000892B8C93FE01EF5AFF4F80E090E0A0E8AA
:10356000BFE380839183A283B3838E01035B1F4FEC
:10357000FE01EF5AFF4F608171818281938120E0CB
:1035800030E04AEF54E40E94AC0FDC01CB01F801BB
:1035900080839183A283B383FE01E35BFF4F60814D
:1035A00071818281938120E030E040E85FE30E94F6
:1035B000B211882344F4FE01E55BFF4F81E090E007
:1035C0009183808364C0FE01E35BFF4F6081718162
:1035D0008281938120E03FEF4FE757E40E94521130
:1035E00018160CF043C0FE01EF5AFF4F6081718145
:1035F0008281938120E030E040E251E40E94AC0FF0
:10360000DC01CB018E01055B1F4FBC01CD010E9487
:103610004900DC01CB01F801918380831FC0FE01CA
:10362000E75BFF4F88EC90E091838083FE01E75BCE
:10363000FF4F808191810197F1F7FE01E75BFF4F1A
:1036400091838083DE01A55BBF4FFE01E55BFF4FE9
:1036500080819181019711969C938E93FE01E55B89
:10366000FF4F808191810097D1F627C08E01055BC5
:103670001F4FFE01E35BFF4F608171818281938167
:103680000E944900DC01CB01F80191838083DE01B7
:10369000A95BBF4FFE01E55BFF4F808191818D9358
:1036A0009C93FE01E95BFF4F808191810197F1F7C7
:1036B000FE01E95BFF4F9183808383E060E00E941D
:1036C0002C24FE01ED5BFF4F80E090E0A0E8BFE31B
:1036D00080839183A283B3838E01015C1F4FFE011F
:1036E000ED5BFF4F608171818281938120E030E04A
:1036F0004AEF54E40E94AC0FDC01CB01F801808357
:103700009183A283B383FE01FF96608171818281E0
:10371000938120E030E040E85FE30E94B21188230B
:103720002CF481E090E09EAF8DAF46C0FE01FF9685
:10373000608171818281938120E03FEF4FE757E400
:103740000E945211181664F5FE01ED5BFF4F608177
:1037500071818281938120E030E040E251E40E9457
:10376000AC0FDC01CB01BC01CD010E944900DC01A2
:10377000CB019EAF8DAF0FC088EC90E09CAF8BAFBC
:103780008BAD9CAD0197F1F79CAF8BAF8DAD9EAD2E
:1037900001979EAF8DAF8DAD9EAD009769F716C0B6
:1037A000FE01FF9660817181828193810E944900B0
:1037B000DC01CB019EAF8DAF8DAD9EAD9AAF89AFD1
:1037C00089AD9AAD0197F1F79AAF89AF83E061E0D7
:1037D0000E942C2480E090E0A0E8BFE38DAB9EAB7C
:1037E000AFABB8AF6DA97EA98FA998AD20E030E04E
:1037F0004AEF54E40E94AC0FDC01CB0189AB9AABD9
:10380000ABABBCAB69A97AA98BA99CA920E030E03D
:1038100040E85FE30E94B21188232CF481E090E03D
:1038200098AB8FA73FC069A97AA98BA99CA920E072
:103830003FEF4FE757E40E94521118164CF56DA95F
:103840007EA98FA998AD20E030E040E251E40E94CB
:10385000AC0FDC01CB01BC01CD010E944900DC01B1
:10386000CB0198AB8FA70FC088EC90E09EA78DA7E7
:103870008DA59EA50197F1F79EA78DA78FA598A965
:10388000019798AB8FA78FA598A9009769F714C0E7
:1038900069A97AA98BA99CA90E944900DC01CB01E6
:1038A00098AB8FA78FA598A99CA78BA78BA59CA544
:1038B0000197F1F79CA78BA7ABE3B0E0EBE3F0E057
:1038C0008081282F2F70FE01EF58FF4F8081882FB5
:1038D00090E082959295907F9827807F9827822B01
:1038E0008C9380E090E0A0E8BFE38FA398A7A9A7FE
:1038F000BAA76FA178A589A59AA520E030E04AEF84
:1039000054E40E94AC0FDC01CB018BA39CA3ADA3BC
:10391000BEA36BA17CA18DA19EA120E030E040E878
:103920005FE30E94B21188232CF481E090E09AA317
:1039300089A33FC06BA17CA18DA19EA120E03FEF98
:103940004FE757E40E94521118164CF56FA178A565
:1039500089A59AA520E030E040E251E40E94AC0F36
:10396000DC01CB01BC01CD010E944900DC01CB018F
:103970009AA389A30FC088EC90E098A38F8F8F8DB6
:1039800098A10197F1F798A38F8F89A19AA1019728
:103990009AA389A389A19AA1009769F714C06BA182
:1039A0007CA18DA19EA10E944900DC01CB019AA3BC
:1039B00089A389A19AA19E8F8D8F8D8D9E8D019750
:1039C000F1F79E8F8D8F83E060E00E942C2480E0D1
:1039D00090E0A0E8BFE3898F9A8FAB8FBC8F698D91
:1039E0007A8D8B8D9C8D20E030E04AEF54E40E946C
:1039F000AC0FDC01CB018D8B9E8BAF8BB88F6D89AB
:103A00007E898F89988D20E030E040E85FE30E9456
:103A1000B21188232CF481E090E09C8B8B8B3FC00B
:103A20006D897E898F89988D20E03FEF4FE757E4BD
:103A30000E94521118164CF5698D7A8D8B8D9C8DD4
:103A400020E030E040E251E40E94AC0FDC01CB0109
:103A5000BC01CD010E944900DC01CB019C8B8B8B0A
:103A60000FC088EC90E09A8B898B89899A8901979D
:103A7000F1F79A8B898B8B899C8901979C8B8B8B17
:103A80008B899C89009769F714C06D897E898F891D
:103A9000988D0E944900DC01CB019C8B8B8B8B891C
:103AA0009C89988B8F878F8598890197F1F7988BE0
:103AB0008F8783E061E00E942C2480E090E0A0E703
:103AC000B1E48B879C87AD87BE876B857C858D85B0
:103AD0009E8520E030E04AEF54E40E94AC0FDC0108
:103AE000CB018F839887A987BA876F81788589856D
:103AF0009A8520E030E040E85FE30E94B21188231D
:103B00002CF481E090E09E838D833FC06F817885A7
:103B100089859A8520E03FEF4FE757E40E945211D4
:103B200018164CF56B857C858D859E8520E030E0F0
:103B300040E251E40E94AC0FDC01CB01BC01CD019D
:103B40000E944900DC01CB019E838D830FC088EC6D
:103B500090E09C838B838B819C810197F1F79C8300
:103B60008B838D819E8101979E838D838D819E8124
:103B7000009769F714C06F81788589859A850E94BE
:103B80004900DC01CB019E838D838D819E819A83C8
:103B9000898389819A810197F1F79A838983CF5824
:103BA000DF4F0FB6F894DEBF0FBECDBFCF91DF91D0
:103BB0001F910F9108950F931F93DF93CF93CDB76C
:103BC000DEB7C157D0400FB6F894DEBF0FBECDBFF1
:103BD000FE01EF58FF4F808381E061E00E942C24BA
:103BE000FE01E359FF4F80E090E0A0E8BFE380834F
:103BF0009183A283B3838E0107591F4FFE01E359BE
:103C0000FF4F608171818281938120E030E04AEF33
:103C100054E40E94AC0FDC01CB01F8018083918356
:103C2000A283B383FE01E759FF4F608171818281D6
:103C3000938120E030E040E85FE30E94B2118823E6
:103C400044F4FE01E959FF4F81E090E091838083C5
:103C500064C0FE01E759FF4F6081718182819381C9
:103C600020E03FEF4FE757E40E94521118160CF086
:103C700043C0FE01E359FF4F6081718182819381CE
:103C800020E030E040E251E40E94AC0FDC01CB01C7
:103C90008E0109591F4FBC01CD010E944900DC0172
:103CA000CB01F801918380831FC0FE01EB59FF4FC8
:103CB00088EC90E091838083FE01EB59FF4F808177
:103CC00091810197F1F7FE01EB59FF4F91838083BA
:103CD000DE01A959BF4FFE01E959FF4F8081918153
:103CE000019711969C938E93FE01E959FF4F8081B5
:103CF00091810097D1F627C08E0109591F4FFE010F
:103D0000E759FF4F60817181828193810E94490050
:103D1000DC01CB01F80191838083DE01AD59BF4FF7
:103D2000FE01E959FF4F808191818D939C93FE01A3
:103D3000ED59FF4F808191810197F1F7FE01ED5917
:103D4000FF4F9183808383E061E00E942C24FE0179
:103D5000E15AFF4F80E090E0A0E8BFE380839183C9
:103D6000A283B3838E01055A1F4FFE01E15AFF4F14
:103D7000608171818281938120E030E04AEF54E4D8
:103D80000E94AC0FDC01CB01F80180839183A283F8
:103D9000B383FE01E55AFF4F608171818281938177
:103DA00020E030E040E85FE30E94B211882344F451
:103DB000FE01E75AFF4F81E090E09183808364C069
:103DC000FE01E55AFF4F608171818281938120E07D
:103DD0003FEF4FE757E40E94521118160CF043C012
:103DE000FE01E15AFF4F608171818281938120E061
:103DF00030E040E251E40E94AC0FDC01CB018E01C7
:103E0000075A1F4FBC01CD010E944900DC01CB01C4
:103E1000F801918380831FC0FE01E95AFF4F88ECAF
:103E200090E091838083FE01E95AFF4F8081918168
:103E30000197F1F7FE01E95AFF4F91838083DE017C
:103E4000A75ABF4FFE01E75AFF4F8081918101972A
:103E500011969C938E93FE01E75AFF4F80819181CA
:103E60000097D1F627C08E01075A1F4FFE01E55A71
:103E7000FF4F60817181828193810E944900DC0142
:103E8000CB01F80191838083DE01AB5ABF4FFE0165
:103E9000E75AFF4F808191818D939C93FE01EB5AED
:103EA000FF4F808191810197F1F7FE01EB5AFF4F9F
:103EB00091838083ABE3B0E0EBE3F0E08081982F67
:103EC0009F70FE01EF58FF4F8081807F892B8C937C
:103ED000FE01EF5AFF4F80E090E0A0E8BFE380834F
:103EE0009183A283B3838E01035B1F4FFE01EF5AC0
:103EF000FF4F608171818281938120E030E04AEF41
:103F000054E40E94AC0FDC01CB01F8018083918363
:103F1000A283B383FE01E35BFF4F608171818281E5
:103F2000938120E030E040E85FE30E94B2118823F3
:103F300044F4FE01E55BFF4F81E090E091838083D4
:103F400064C0FE01E35BFF4F6081718182819381D8
:103F500020E03FEF4FE757E40E94521118160CF093
:103F600043C0FE01EF5AFF4F6081718182819381CE
:103F700020E030E040E251E40E94AC0FDC01CB01D4
:103F80008E01055B1F4FBC01CD010E944900DC0181
:103F9000CB01F801918380831FC0FE01E75BFF4FD7
:103FA00088EC90E091838083FE01E75BFF4F808186
:103FB00091810197F1F7FE01E75BFF4F91838083C9
:103FC000DE01A55BBF4FFE01E55BFF4F8081918164
:103FD000019711969C938E93FE01E55BFF4F8081C4
:103FE00091810097D1F627C08E01055B1F4FFE011E
:103FF000E35BFF4F60817181828193810E94490060
:10400000DC01CB01F80191838083DE01A95BBF4F06
:10401000FE01E55BFF4F808191818D939C93FE01B2
:10402000E95BFF4F808191810197F1F7FE01E95B28
:10403000FF4F9183808383E060E00E942C24FE0187
:10404000ED5BFF4F80E090E0A0E8BFE380839183C9
:10405000A283B3838E01015C1F4FFE01ED5BFF4F16
:10406000608171818281938120E030E04AEF54E4E5
:104070000E94AC0FDC01CB01F80180839183A28305
:10408000B383FE01FF96608171818281938120E07C
:1040900030E040E85FE30E94B21188232CF481E015
:1040A00090E09EAF8DAF46C0FE01FF9660817181AA
:1040B0008281938120E03FEF4FE757E40E94521145
:1040C000181664F5FE01ED5BFF4F608171818281FE
:1040D000938120E030E040E251E40E94AC0FDC012B
:1040E000CB01BC01CD010E944900DC01CB019EAF98
:1040F0008DAF0FC088EC90E09CAF8BAF8BAD9CADCB
:104100000197F1F79CAF8BAF8DAD9EAD01979EAF40
:104110008DAF8DAD9EAD009769F716C0FE01FF967D
:1041200060817181828193810E944900DC01CB0111
:104130009EAF8DAF8DAD9EAD9AAF89AF89AD9AAD73
:104140000197F1F79AAF89AF83E061E00E942C24D8
:1041500080E090E0A0E8BFE38DAB9EABAFABB8AF23
:104160006DA97EA98FA998AD20E030E04AEF54E414
:104170000E94AC0FDC01CB0189AB9AABABABBCAB03
:1041800069A97AA98BA99CA920E030E040E85FE307
:104190000E94B21188232CF481E090E098AB8FA7A5
:1041A0003FC069A97AA98BA99CA920E03FEF4FE7FE
:1041B00057E40E94521118164CF56DA97EA98FA9DB
:1041C00098AD20E030E040E251E40E94AC0FDC0109
:1041D000CB01BC01CD010E944900DC01CB0198ABB1
:1041E0008FA70FC088EC90E09EA78DA78DA59EA5F8
:1041F0000197F1F79EA78DA78FA598A9019798AB76
:104200008FA78FA598A9009769F714C069A97AA903
:104210008BA99CA90E944900DC01CB0198AB8FA718
:104220008FA598A99CA78BA78BA59CA50197F1F7B3
:104230009CA78BA7ABE3B0E0EBE3F0E08081282FF5
:104240002F70FE01EF58FF4F8081882F90E08295FC
:104250009295907F9827807F9827822B8C9380E07F
:1042600090E0A0E8BFE38FA398A7A9A7BAA76FA182
:1042700078A589A59AA520E030E04AEF54E40E9491
:10428000AC0FDC01CB018BA39CA3ADA3BEA36BA1A0
:104290007CA18DA19EA120E030E040E85FE30E9478
:1042A000B21188232CF481E090E09AA389A33FC047
:1042B0006BA17CA18DA19EA120E03FEF4FE757E4C9
:1042C0000E94521118164CF56FA178A589A59AA5E0
:1042D00020E030E040E251E40E94AC0FDC01CB0171
:1042E000BC01CD010E944900DC01CB019AA389A346
:1042F0000FC088EC90E098A38F8F8F8D98A10197C5
:10430000F1F798A38F8F89A19AA101979AA389A306
:1043100089A19AA1009769F714C06BA17CA18DA116
:104320009EA10E944900DC01CB019AA389A389A127
:104330009AA19E8F8D8F8D8D9E8D0197F1F79E8F07
:104340008D8F83E060E00E942C2480E090E0A0E864
:10435000BFE3898F9A8FAB8FBC8F698D7A8D8B8DE0
:104360009C8D20E030E04AEF54E40E94AC0FDC0169
:10437000CB018D8B9E8BAF8BB88F6D897E898F899A
:10438000988D20E030E040E85FE30E94B21188237E
:104390002CF481E090E09C8B8B8B3FC06D897E89F3
:1043A0008F89988D20E03FEF4FE757E40E9452112C
:1043B00018164CF5698D7A8D8B8D9C8D20E030E040
:1043C00040E251E40E94AC0FDC01CB01BC01CD0105
:1043D0000E944900DC01CB019C8B8B8B0FC088ECC9
:1043E00090E09A8B898B89899A890197F1F79A8B4A
:1043F000898B8B899C8901979C8B8B8B8B899C8962
:10440000009769F714C06D897E898F89988D0E9405
:104410004900DC01CB019C8B8B8B8B899C89988B11
:104420008F878F8598890197F1F7988B8F8783E025
:1044300061E00E942C2480E090E0A0E7B1E48B874B
:104440009C87AD87BE876B857C858D859E8520E0AA
:1044500030E04AEF54E40E94AC0FDC01CB018F83C3
:104460009887A987BA876F81788589859A8520E0A2
:1044700030E040E85FE30E94B21188232CF481E031
:1044800090E09E838D833FC06F81788589859A8572
:1044900020E03FEF4FE757E40E94521118164CF509
:1044A0006B857C858D859E8520E030E040E251E47F
:1044B0000E94AC0FDC01CB01BC01CD010E94490080
:1044C000DC01CB019E838D830FC088EC90E09C8340
:1044D0008B838B819C810197F1F79C838B838D81EA
:1044E0009E8101979E838D838D819E81009769F7C0
:1044F00014C06F81788589859A850E944900DC0106
:10450000CB019E838D838D819E819A83898389814E
:104510009A810197F1F79A838983CF58DF4F0FB6BD
:10452000F894DEBF0FBECDBFCF91DF911F910F91E9
:104530000895DF93CF9300D000D0CDB7DEB7898345
:104540006A838A818823E1F08A818131C8F4898174
:10455000282F30E03C832B838B819C818130910517
:1045600031F02B813C812230310531F009C08A8144
:1045700081580E941D1904C08A8181540E941D190E
:104580000F900F900F900F90CF91DF910895DF93D0
:10459000CF9300D00F92CDB7DEB79B838A83198269
:1045A0000EC08981282F30E08A819B81FC01E20FB7
:1045B000F31F80810E94DB1D89818F5F8983898140
:1045C000282F30E08A819B81FC01E20FF31F80815C
:1045D000882339F70F900F900F90CF91DF910895B6
:1045E000DF93CF9300D000D000D0CDB7DEB79D834E
:1045F0008C836E831B828E8181508A832CC08B8139
:10460000282F30E08C819D81FC01E20FF31F808117
:1046100089838B81282F30E08C819D81DC01A20F62
:10462000B31F8A81282F30E08C819D81FC01E20F2D
:10463000F31F80818C938A81282F30E08C819D81AB
:10464000FC01E20FF31F898180838B818F5F8B8355
:104650008A8181508A839B818A81981780F226966D
:104660000FB6F894DEBF0FBECDBFCF91DF91089596
:10467000DF93CF93CDB7DEB72C970FB6F894DEBF9C
:104680000FBECDBF6C837D838E839F835987488700
:104690002A871B821A828C819D81AE81BF810097FF
:1046A000A105B105D9F48B81282F30E08885998543
:1046B000FC01E20FF31F80E380838B818F5F8B838C
:1046C0008B81282F30E088859985FC01E20FF31F4C
:1046D0001082888599859C878B878BC08C819D8172
:1046E000AE81BF81BB230CF059C08A858A3009F0A6
:1046F00055C081E08A838C819D81AE81BF81B09558
:10470000A095909581959F4FAF4FBF4F8C839D8310
:10471000AE83BF8343C08A85282F30E040E050E05D
:104720008C819D81AE81BF81BC01CD010E9436305C
:10473000DC01CB01898389818A3078F08B81282F35
:1047400030E088859985FC01E20FF31F8981895C3F
:1047500080838B818F5F8B830EC08B81282F30E00D
:1047600088859985FC01E20FF31F8981805D808334
:104770008B818F5F8B838A85282F30E040E050E06B
:104780008C819D81AE81BF81BC01CD010E943630FC
:10479000DA01C9018C839D83AE83BF838C819D81A7
:1047A000AE81BF810097A105B10509F0B4CF8A8120
:1047B000882369F08B81282F30E088859985FC015A
:1047C000E20FF31F8DE280838B818F5F8B838B8160
:1047D000282F30E088859985FC01E20FF31F1082B5
:1047E000888599856B810E94F022888599859C87B0
:1047F0008B878B859C852C960FB6F894DEBF0FBEF9
:10480000CDBFCF91DF910895DF93CF93CDB7DEB7C2
:1048100064970FB6F894DEBF0FBECDBF698B7A8B5D
:104820008B8B9C8B89899A89AB89BC89BC01CD0112
:104830009E012F5F3F4FA9012AE00E943823CE013D
:1048400001960E94C72264960FB6F894DEBF0FBE91
:10485000CDBFCF91DF910895DF93CF9300D0CDB737
:10486000DEB789836A838981883060F58A818823ED
:10487000A9F4ABE3B0E0EBE3F0E08081482F89815D
:10488000282F30E081E090E0022E02C0880F991FAF
:104890000A94E2F7809584238C93BBC0ABE3B0E02D
:1048A000EBE3F0E08081482F8981282F30E081E020
:1048B00090E0022E02C0880F991F0A94E2F7842B21
:1048C0008C93A7C089818830A8F18981803190F5C7
:1048D0008A818823C1F4A8E3B0E0E8E3F0E08081B6
:1048E000482F8981882F90E09C012850304081E03A
:1048F00090E0022E02C0880F991F0A94E2F780957B
:1049000084238C9386C0A8E3B0E0E8E3F0E08081E4
:10491000482F8981882F90E09C012850304081E009
:1049200090E0022E02C0880F991F0A94E2F7842BB0
:104930008C936FC089818031A8F18981883190F58D
:104940008A818823C1F4A5E3B0E0E5E3F0E080814B
:10495000482F8981882F90E09C012051304081E0D0
:1049600090E0022E02C0880F991F0A94E2F780950A
:1049700084238C934EC0A5E3B0E0E5E3F0E08081B2
:10498000482F8981882F90E09C012051304081E0A0
:1049900090E0022E02C0880F991F0A94E2F7842B40
:1049A0008C9337C089818831A0F18981803288F564
:1049B0008A818823C1F4A2E3B0E0E2E3F0E08081E1
:1049C000482F8981882F90E09C012851304081E058
:1049D00090E0022E02C0880F991F0A94E2F780959A
:1049E00084238C9316C0A2E3B0E0E2E3F0E0808180
:1049F000482F8981882F90E09C012851304081E028
:104A000090E0022E02C0880F991F0A94E2F7842BCF
:104A10008C930F900F90CF91DF910895DF93CF93F8
:104A200000D0CDB7DEB78A838A81883090F4E9E37D
:104A3000F0E08081482F8A81282F30E081E090E0EB
:104A4000022E02C0880F991F0A94E2F784238983FB
:104A500050C08A818830C0F08A818031A8F4E6E3B2
:104A6000F0E08081482F8A81882F90E09C012850B7
:104A7000304081E090E0022E02C0880F991F0A9416
:104A8000E2F78423898335C08A818031C0F08A812E
:104A90008831A8F4E3E3F0E08081482F8A81882FF1
:104AA00090E09C012051304081E090E0022E02C055
:104AB000880F991F0A94E2F7842389831AC08A8198
:104AC0008831B8F08A818032A0F4E0E3F0E08081A0
:104AD000482F8A81882F90E09C012851304081E046
:104AE00090E0022E02C0880F991F0A94E2F78423F7
:104AF000898389810F900F90CF91DF910895DF9383
:104B0000CF9300D0CDB7DEB789836A83898188309F
:104B100060F58A818823A9F4AAE3B0E0EAE3F0E033
:104B20008081482F8981282F30E081E090E0022E9B
:104B300002C0880F991F0A94E2F7809584238C9312
:104B4000BBC0AAE3B0E0EAE3F0E08081482F8981AE
:104B5000282F30E081E090E0022E02C0880F991FDC
:104B60000A94E2F7842B8C93A7C089818830A8F13E
:104B70008981803190F58A818823C1F4A7E3B0E070
:104B8000E7E3F0E08081482F8981882F90E09C0145
:104B90002850304081E090E0022E02C0880F991F1B
:104BA0000A94E2F7809584238C9386C0A7E3B0E053
:104BB000E7E3F0E08081482F8981882F90E09C0115
:104BC0002850304081E090E0022E02C0880F991FEB
:104BD0000A94E2F7842B8C936FC089818031A8F10D
:104BE0008981883190F58A818823C1F4A4E3B0E0FB
:104BF000E4E3F0E08081482F8981882F90E09C01D8
:104C00002051304081E090E0022E02C0880F991FB1
:104C10000A94E2F7809584238C934EC0A4E3B0E01D
:104C2000E4E3F0E08081482F8981882F90E09C01A7
:104C30002051304081E090E0022E02C0880F991F81
:104C40000A94E2F7842B8C9337C089818831A0F1D4
:104C50008981803288F58A818823C1F4A1E3B0E09C
:104C6000E1E3F0E08081482F8981882F90E09C016A
:104C70002851304081E090E0022E02C0880F991F39
:104C80000A94E2F7809584238C9316C0A1E3B0E0E8
:104C9000E1E3F0E08081482F8981882F90E09C013A
:104CA0002851304081E090E0022E02C0880F991F09
:104CB0000A94E2F7842B8C930F900F90CF91DF91A1
:104CC0000895DF93CF9300D0CDB7DEB789836A8391
:104CD000AFE5B0E0EFE5F0E0808180688C938981FA
:104CE0008823B9F4A5E5B0E0E5E5F0E08081982FF0
:104CF0009C7F8A818370892B8C93ABE5B0E0EBE5D8
:104D0000F0E0808180648C938AE160E00E947F25DE
:104D10003AC089818130B9F4A5E5B0E0E5E5F0E07D
:104D20008081982F937F8A818C70892B8C93ABE53F
:104D3000B0E0EBE5F0E0808180688C938BE160E08F
:104D40000E947F2520C089818230E9F48A818230E7
:104D500041F4A4E5B0E0E4E5F0E080818F7B8C9342
:104D600007C0A4E5B0E0E4E5F0E0808180648C93C6
:104D7000ABE5B0E0EBE5F0E0808180628C938AE007
:104D800060E00E947F250F900F90CF91DF910895F2
:104D9000DF93CF930F92CDB7DEB789838EE160E0CA
:104DA0000E947F25AEE4B0E0EEE4F0E080818F7BEE
:104DB0008C93ECE4F0E011821082A9E5B0E0E9E523
:104DC000F0E0808184628C93AEE4B0E0EEE4F0E049
:104DD0008081982F987F89818770892B8C930F9081
:104DE000CF91DF910895DF93CF930F92CDB7DEB7C8
:104DF0008983AEE4B0E0EEE4F0E08081982F9F7B01
:104E000089818074892B8C930F90CF91DF910895C5
:104E1000AF92BF92CF92DF92EF92FF920F931F93C8
:104E2000DF93CF93CDB7DEB728970FB6F894DEBFE8
:104E30000FBECDBF19821A821B821C821D821E8268
:104E40001F821886E6E4F0E080819181CC01A0E029
:104E5000B0E0BC01CD010E943612DC01CB01BC01E7
:104E6000CD0120E030E040E05EE30E94AC0FDC01C9
:104E7000CB01BC01CD010E947500A22EB32EC42E21
:104E8000D52EE62EF72E082F192FA982BA82CB82B3
:104E9000DC82ED82FE820F83188729813A814B8163
:104EA0005C816D817E818F819885A22EB32EC42E68
:104EB000D52EE62EF72E082F192F2A2D3B2D4C2DFF
:104EC0005D2D6E2D7F2D802F912F28960FB6F89493
:104ED000DEBF0FBECDBFCF91DF911F910F91FF902D
:104EE000EF90DF90CF90BF90AF900895DF93CF9376
:104EF000CDB7DEB7ECE4F0E011821082CF91DF9104
:104F000008951F920F920FB60F921124AF92BF9285
:104F1000CF92DF92EF92FF920F931F932F933F93C5
:104F20004F935F936F937F938F939F93AF93BF93B1
:104F3000EF93FF93DF93CF93CDB7DEB710926A0163
:104F400010926B0110926C0110926D0110926E0123
:104F500010926F0110927001109271010E94082747
:104F6000A22EB32EC42ED52EE62EF72E082F192FE3
:104F7000A0926A01B0926B01C0926C01D0926D0157
:104F8000E0926E01F0926F01009370011093710135
:104F9000CF91DF91FF91EF91BF91AF919F918F9151
:104FA0007F916F915F914F913F912F911F910F9141
:104FB000FF90EF90DF90CF90BF90AF900F900FBE1B
:104FC0000F901F901895DF93CF93CDB7DEB77894ED
:104FD0008AE161E00E947F258BE161E00E947F25EC
:104FE0008EE161E00E947F258FE161E00E947F25D4
:104FF0008AE160E00E942C248BE160E00E942C2476
:105000008EE160E00E942C248FE160E00E942C245D
:1050100088E061E00E947F258DE061E00E947F25AD
:105020008EE061E00E947F2582E063E00E946126BD
:105030008CE80E941E280E945F28FACFDF93CF934E
:105040000F92CDB7DEB78983E2E5F0E01082ECE5A0
:10505000F0E0898180838BE061E00E947F25E3E5B9
:10506000F0E08AE680830F90CF91DF910895DF937F
:10507000CF9300D0CDB7DEB79A8389838DE161E00D
:105080000E947F25ECE4F0E011821082E6E4F0E07B
:1050900083EC99E091838083EAE4F0E089819A814E
:1050A00091838083EFE4F0E082E88083EEE4F0E037
:1050B0008BE180830F900F90CF91DF910895DF9364
:1050C000CF9300D0CDB7DEB70E94EE289A838983B4
:1050D00089819A818A30910519F40E94D7281DC0D0
:1050E00089819A818B30910588F08AE161E00E9484
:1050F0002C248BE160E00E942C248EE161E00E9470
:105100002C248FE160E00E942C2407C089819A81C1
:105110008A30910510F40E9492280F900F90CF9141
:10512000DF910895DF93CF93CDB7DEB78AE160E0DA
:105130000E942C248BE161E00E942C248EE160E02F
:105140000E942C248FE161E00E942C24CF91DF91FA
:105150000895DF93CF93CDB7DEB78AE161E00E9477
:105160002C248BE160E00E942C248EE160E00E9400
:105170002C248FE161E00E942C24CF91DF910895CF
:10518000DF93CF93CDB7DEB78AE160E00E942C2495
:105190008BE161E00E942C248EE161E00E942C24CE
:1051A0008FE160E00E942C24CF91DF910895DF937E
:1051B000CF93CDB7DEB78AE160E00E942C248BE16B
:1051C00060E00E942C248EE160E00E942C248FE19C
:1051D00060E00E942C24CF91DF910895DF93CF935C
:1051E000CDB7DEB7AA970FB6F894DEBF0FBECDBF1E
:1051F0008EE060E00E942C2488E060E00E942C2475
:1052000080E090E0A0E0B0E48BA39CA3ADA3BEA39C
:105210006BA17CA18DA19EA120E030E04AEF54E477
:105220000E94AC0FDC01CB018F8F98A3A9A3BAA376
:105230006F8D78A189A19AA120E030E040E85FE37A
:105240000E94B21188232CF481E090E09E8F8D8F14
:105250003FC06F8D78A189A19AA120E03FEF4FE771
:1052600057E40E94521118164CF56BA17CA18DA138
:105270009EA120E030E040E251E40E94AC0FDC014E
:10528000CB01BC01CD010E944900DC01CB019E8F06
:105290008D8F0FC088EC90E09C8F8B8F8B8D9C8DB9
:1052A0000197F1F79C8F8B8F8D8D9E8D01979E8F2F
:1052B0008D8F8D8D9E8D009769F714C06F8D78A1AD
:1052C00089A19AA10E944900DC01CB019E8F8D8F9C
:1052D0008D8D9E8D9A8F898F898D9A8D0197F1F78B
:1052E0009A8F898F88E061E00E942C2480E090E012
:1052F000A0E2B1E48D8B9E8BAF8BB88F6D897E89D8
:105300008F89988D2BEA3AEA4AE250E40E94AC0F6A
:10531000DC01CB01898B9A8BAB8BBC8B69897A8939
:105320008B899C8920E030E040E85FE30E94B21165
:1053300088231CF481E0888B91C069897A898B89E4
:105340009C8920E030E04FE753E40E945211181688
:105350000CF07BC06D897E898F89988D20E030E0CC
:105360004AE754E40E94A610DC01CB018C879D879C
:10537000AE87BF876C857D858E859F8520E030E078
:105380004AEF54E40E94AC0FDC01CB018887998777
:10539000AA87BB87688579858A859B8520E030E070
:1053A00040E85FE30E94B21188232CF481E090E092
:1053B0009F838E833FC0688579858A859B8520E0A1
:1053C0003FEF4FE757E40E94521118164CF56C85D9
:1053D0007D858E859F8520E030E040E251E40E948B
:1053E000AC0FDC01CB01BC01CD010E944900DC0106
:1053F000CB019F838E830FC088EC90E09D838C83CC
:105400008C819D810197F1F79D838C838E819F8193
:1054100001979F838E838E819F81009769F724C0B7
:10542000688579858A859B850E944900DC01CB01CE
:105430009F838E838E819F819B838A838A819B81B8
:105440000197F1F79B838A830FC069897A898B89D9
:105450009C890E944900DC01CB01888B8889898363
:1054600089818A95F1F7898388E060E00E942C2485
:1054700080918A01882F90E098A78FA38FA198A58B
:10548000CC01A0E0B0E0BC01CD010E943612DC01ED
:10549000CB01BC01CD0126E933E44BE050E40E948E
:1054A000AC0FDC01CB01BC01CD010E944900DC0145
:1054B000CB019AA789A789A59AA5AA960FB6F894B1
:1054C000DEBF0FBECDBFCF91DF9108951F920F9227
:1054D0000FB60F9211242F933F934F935F936F93C7
:1054E0007F938F939F93AF93BF93EF93FF93DF933C
:1054F000CF93CDB7DEB780918B018F5F80938B0107
:1055000080918B01813039F40E941B3082E062E08F
:105510000E94612611C080918B01823069F4E4E41D
:10552000F0E0808180938A0182E063E00E9461263E
:105530000E94293010928B01CF91DF91FF91EF9162
:10554000BF91AF919F918F917F916F915F914F919B
:105550003F912F910F900FBE0F901F901895DF93E2
:10556000CF9300D0CDB7DEB789836A838981882342
:10557000A9F5A3E5B0E0E3E5F0E0808180688C93D5
:10558000A3E5B0E0E3E5F0E080818F7B8C93A3E5B9
:10559000B0E0E3E5F0E080818F7D8C93A3E5B0E09F
:1055A000E3E5F0E080818F7E8C93A3E5B0E0E3E556
:1055B000F0E08081877F8C93A3E5B0E0E3E5F0E045
:1055C0008081982F8A818F70892B8C93A9E5B0E018
:1055D000E9E5F0E0808181608C9317C0898181309A
:1055E000A1F4E2E5F0E01082ECE5F0E089EF8083E1
:1055F000E3E5F0E08A81877088608083A8E5B0E009
:10560000E8E5F0E0808182608C930F900F90CF915D
:10561000DF910895DF93CF9300D000D0CDB7DEB7F0
:1056200069837A838B839C83E2E5F0E01082ECE56A
:10563000F0E089EF8083E3E5F0E08BE0808389810F
:105640009A81AB81BC81B695A795979587958983FB
:105650009A83AB83BC831EC0E8E5F0E08081882F8D
:1056600090E0827090700097B9F3A8E5B0E0E8E5AB
:10567000F0E0808182608C93E2E5F0E01082898125
:105680009A81AB81BC810197A109B10989839A8371
:10569000AB83BC8389819A81AB81BC810097A105D2
:1056A000B105D1F60F900F900F900F90CF91DF9131
:1056B0000895AF92BF92CF92DF92EF92FF920F9335
:1056C0001F93DF93CF93CDB7DEB7C857D0400FB647
:1056D000F894DEBF0FBECDBF298B3A8B4B8B5C8B12
:1056E0006D8B7E8B8F8B988F89898BA39A899CA3D6
:1056F0008B898DA39C899EA38D898FA39E8998A752
:105700008F8989A7988D9AA78AA5882309F0C0C197
:105710009AA5992371F589A5882309F0B9C199A59E
:10572000992339F588A5882309F0B2C198A5992352
:1057300001F58FA1882309F0ABC19FA19923C9F47A
:105740008EA1882309F0A4C19EA1992391F48DA173
:10575000882309F09DC19DA1992359F48CA1882328
:1057600009F096C19CA1992321F48BA18B3F08F0ED
:105770008FC1E2E5F0E01082ECE5F0E029893A899A
:105780004B895C896D897E898F89988D822F808372
:10579000E3E5F0E08AE0808313C0E8E5F0E0808193
:1057A000882F90E0827090700097B9F3A8E5B0E080
:1057B000E8E5F0E0808182608C93E2E5F0E0108221
:1057C00099899B8F8A898C8F9B899D8F8C898E8FDD
:1057D0009D899F8F8E8988A39F8999A3888D8AA38D
:1057E0001A8E8B8D9C8D892B9D8D892B9E8D892B5F
:1057F0009F8D892B98A1892B99A1892B9AA1892BFF
:10580000882311F081E08A8F9FEF9BA78FEF8CA7F1
:105810009FEF9DA78FEF8EA79FEF9FA78FEF88AB7E
:105820009FEF99AB8FEF8AAB9B8D8BA5980F9BABAE
:1058300091E09BAF8BA99B8D891708F01BAE8C8DD7
:105840009CA5890F8CAB81E08CAF9CA98C8D98179F
:1058500008F01CAE9BAD8CA9980F9DAF91E09EAF58
:105860008DAD9CA9891708F01EAE8CAD9EAD892B1D
:105870008CAF8DAD8CAB9D8D8DA5980F9DAB91E0C0
:105880009FAF8DA99D8D891708F01FAE8CAD9DA986
:10589000890F21968FAF219781E022968FAF2297B3
:1058A00021969FAD21978DA9981718F022961FAECB
:1058B00022979FAD22968FAD2297982B9FAF21966E
:1058C0009FAD21979DAB8E8D9EA5890F8EAB81E0FC
:1058D00023968FAF23979EA98E8D981718F0239645
:1058E0001FAE23979FAD8EA9980F24969FAF249744
:1058F00091E025969FAF259724968FAD24979EA97A
:10590000891718F025961FAE259723968FAD2397FC
:1059100025969FAD2597892B23968FAF23972496A5
:105920008FAD24978EAB9F8D8FA5980F9FAB91E085
:1059300026969FAF26978FA99F8D891718F02696D8
:105940001FAE269723968FAD23979FA9890F279681
:105950008FAF279781E028968FAF289727969FAD26
:1059600027978FA9981718F028961FAE2897269684
:105970009FAD269728968FAD2897982B26969FAF98
:10598000269727969FAD27979FAB88A198A9890F47
:1059900088AF81E029968FAF299798AD88A1981795
:1059A00018F029961FAE299726969FAD269788ADA9
:1059B000980F2A969FAF2A9791E02B969FAF2B972F
:1059C0002A968FAD2A9798AD891718F02B961FAE9F
:1059D0002B9729968FAD29972B969FAD2B97892BC7
:1059E00029968FAF29972A968FAD2A9788AF99A1CC
:1059F00089A9980F99AF91E02C969FAF2C9789AD0C
:105A000099A1891718F02C961FAE2C9729968FAD67
:105A1000299799AD890F2D968FAF2D9781E02E96FE
:105A20008FAF2E972D969FAD2D9789AD981718F0B3
:105A30002E961FAE2E972C969FAD2C972E968FAD3F
:105A40002E97982B2C969FAF2C972D969FAD2D9728
:105A500099AF8AA19AA9890F8AAF2C968FAD2C97FE
:105A60009AAD890F8AAF2BA93CA94DA95EA96FA950
:105A700078AD89AD9AAD298B3A8B4B8B5C8B6D8B56
:105A80007E8B8F8B988F8A8D882309F086CEC1C23A
:105A9000A988BA88CB88DC88ED88FE880F89188DA4
:105AA0002A2D3B2D4C2D5D2D6E2D7F2D802F912F7E
:105AB0000F2EFAEFAF2EF02DBB24CC24DD24EE24E4
:105AC000FF2400E010E00E941D01A22EB32EC42E80
:105AD000D52EE62EF72E082F192FA986BA86CB864B
